:0A0000000C944F000C9400000C94C7
:10000A0000000C9400000C9400000C9400000C9466
:10001A0000000C9400000C9400000C9400000C9456
:10002A0000000C9400000C9400000C9400000C9446
:10003A0000000C9400000C9400000C9400000C9436
:10004A0000000C9400000C9400000C9400000C9426
:10005A0000000C9400000C9400000C9400000E00A8
:10006A000D000B0007003700380039002F0034005C
:10007A00350036002A003100320033002D004E00D0
:10008A0030003D002B000700000368001F00080332
:10009A0070000000F894EE27EFBBF1E0F5BFE5BF72
:1000AA00F8E1A895A4B7A77FA4BFF0936000E093F6
:1000BA0060008DE0A2E0BB27ED938A95E9F780E026
:1000CA0098E0A0E0B1E0ED930197E9F7E0E9F0E00C
:1000DA0085919591009761F0A591B591059015903C
:1000EA00BF01F00105900D920197E1F7FB01F0CFF6
:1000FA00E0E0EEBBEFEFEDBFE8E0EEBFC0E0D3E03B
:10010A000C94D1002A98E881EEBDEDB5E030E9F310
:10011A002A9A219608950E942F0100E010E00430E7
:10012A00E0E01E07A8F5F8013496A1E0B0E00E94CD
:10013A001401AFEFB0E00E942801EA1BFB0BEBB9F8
:10014A008BE18A95F1F7E9B1EF704E2F5527EFE071
:10015A00F0E0E417F507C9F020E030E02430E0E0F1
:10016A003E0798F4F901A0E0B3E046D0E417F5079A
:10017A0049F4F9010E941D01E85FFC4FDF01F80113
:10018A003BD006C02F5F3F4FE9CF0F5F1F4FC7CF4E
:10019A000E94360126960895E0E8E0936100E0E0C7
:1001AA00E0936100E093C000E8E4E093C100E6E078
:1001BA00E093C200E0E0E093C500E8E0E093C40009
:1001CA00E0EFEAB9EFE0EBB9E3E5ECBDE0E0EDBD65
:1001DA00ECE2E4B9E4E1E5B99EDF3E2E4F2E032CB2
:1001EA00042811F03A928EDFE8ECF0E0FA93EA93F1
:1001FA000E940801F1CFFFCFEE0FFF1FAE0FBF1F06
:10020A000E9424010895E991F991309639F080ED20
:10021A0097E00197F1F7A8953197C9F70895EE236A
:10022A000E2EFD0121F0EE0FFF1F0A94E1F708954B
:10023A00EE0FFF1FEE0FFF1FEE0FFF1F0895ED9148
:10024A00FC91119708951B2EBF2FF12D1A2EAE2F58
:10025A00E12D08955A934A933A932A931A930A934B
:10026A0008955D814C813B812A8119810881089515
:00000001FF
