:060000000C9446000C9474
:10000600A7000C947E000C9400000C9400000C9445
:1000160000000C9400000C9400000C9400000C945A
:1000260000000C9400000C9400000C9400000C944A
:1000360000000C9400000C9400000C9400000C943A
:1000460000000C94E9000C9400000C941A010C9426
:1000560000000C9400000C9400000C9400000C941A
:1000660000001027E80364000A00010000100001E8
:10007600100001000100020003000400000002005D
:10008600030082000000F894EE27EFBBF1E0F5BF15
:10009600E5BFF8E1A895A4B7A77FA4BFF0936000D9
:1000A600E09360008DE0A2E0BB27ED938A95E9F727
:1000B60080E098E0A0E0B1E0ED930197E9F7E4E88D
:1000C600F0E085919591009761F0A591B591059025
:1000D6001590BF01F00105900D920197E1F7FB0124
:1000E600F0CFE0E0EEBBEFEFEDBFE8E0EEBFC0E043
:1000F600D3E00C944D010E948401E1E0F0E03E0E55
:100106004F1EE5E0F0E0E315F40521F4E1E0F0E050
:100116003E2E4F2EE1E0F0E0E315F40509F411C0A0
:10012600E2E0F0E0E315F40509F40BC0E3E0F0E0EB
:10013600E315F40509F405C0E4E0F0E0E315F40581
:1001460011F45E2E6F2E84C00A921A92FA926A9366
:100156007A938A939A93AA93BA93EA93FA93EFB708
:10016600EA93E1E0F0E0E515F60529F4289A0E9405
:10017600890128981DC0E2E0F0E0E515F60529F4AE
:100186002B9A0E9489012B9813C0E3E0F0E0E51555
:10019600F60529F4299A0E948901299809C0E4E004
:1001A600F0E0E515F60521F42A9A0E9489012A98BD
:1001B600E991EFBFF991E991B991A9919991899145
:1001C60079916991F9901990099018950E94840186
:1001D6001A930A931091C0000091C600E12FEC71AA
:1001E60081F4E82D8394F0E0E050FD4F0083E8E0D1
:1001F600E81509F48824A394E8E0EA1511F4AA2482
:10020600F09A0991199124C01A93AA20F1F3E72DC7
:100216007394F0E0E050FD4F1081E8E0E71509F433
:100226007724F894AA947894E12F199108950E945E
:100236008401BB2069F0BA94EC2DC394F0E0E85F2A
:10024600FC4FE081E093C600E8E0EC1509F4CC240D
:10025600E991EFBFF991E9911895E8E0EB15E9F31B
:10026600F894BB2021F4E091C000E07269F4E92D16
:100276009394F0E0E85FFC4FA881A083E8E0E915DD
:1002860009F49924B39403C0E881E093C6007894F6
:1002960021960895E0E8E0936100E0E0E0936100D4
:1002A600EAE0E0936900E0E0EDBBE3E0ECBBE0E010
:1002B600E093C000E8EDE093C100E6E0E093C20001
:1002C600E0E0E093C500E8E0E093C400EFEFE4B9B6
:1002D600E0E0E5B9789498DFE093C600A091C60007
:1002E600A33621F4E3E0EDBBE5E707C0A091C60025
:1002F600A73729F4E0E0EDBBECE6EA93AEDFEBCFFF
:10030600FFCFEA93FA93EFB7EA930895E8ECF0E0AB
:10031600FA93EA930C948F01E991F991309639F0AA
:1003260080ED97E00197F1F7A8953197C9F7089501
:00000001FF
