:060000000C947F000C943B
:1000060000000C9400000C9400000C9400000C946A
:1000160000000C9400000C9400000C9400000C945A
:1000260000000C9400000C9400000C9400000C944A
:1000360000000C9400000C9400000C9400000C943A
:10004600F4000C945F010C9400000C9492010C9443
:1000560000000C9400000C9400000C9400000C941A
:1000660000001027E80364000A00010000100001E8
:100076001000010000000000636F72726563742057
:10008600494400556E6C6F636B20456E67696E65FB
:10009600004E6F7420636F7272656374004C6F63F9
:1000A6006B20456E67696E6500456E746572204902
:1000B600443A20005468656674205761726E696E12
:1000C6006721000080C00B0000037E000E000B03BA
:1000D60089000C00190397000C002503A3000B00F0
:1000E6003103AF000F003C03BA00040003007A009E
:1000F60002006303CA000000F894EE27EFBBF1E0AC
:10010600F5BFE5BFF8E1A895A4B7A77FA4BFF09314
:100116006000E09360008DE0A2E0BB27ED938A9536
:10012600E9F780E098E0A0E0B1E0ED930197E9F708
:10013600ECECF0E085919591009761F0A591B59171
:1001460005901590BF01F00105900D920197E1F71A
:10015600FB01F0CFE0E0EEBBEFEFEDBFE8E0EEBF76
:10016600C0E0D3E00C94C7012897E1E3E883E2E31B
:10017600E983E3E3EA83EDE2EB83EBE2EC83EDE391
:10018600ED83E0E3EE83EEE4EF831A930A9300E057
:1001960010E00830E0E01E0778F4ABE4B3E0A00F0F
:1001A600B11F0C90DE011296A00FB11FEC91E01565
:1001B60019F40F5F1F4FEDCFE8E0F0E0E017F1070D
:1001C60019F4E1E0F0E002C0E0E0F0E01981088116
:1001D6002A960895299A289A0E94B502299828985D
:1001E60008950A921A92FA926A937A938A939A9344
:1001F600AA93BA93EA93FA93EFB7EA93A52DB62D8D
:10020600A55BBC4FEEB5EC930E94BB025A92E1E0AF
:10021600EA930E944102ABE4B3E0A50DB61DEC9152
:10022600EA930E945B02E1E0F0E05E0E6F1EE8E0FA
:10023600F0E0E515F60571F55524662495DF94DFA3
:10024600E130A0E0FA0761F40E944E02E0E0F3E03C
:100256000E94C002E3E60E94CC02EBE0F3E014C089
:100266000E944E02E9E1F3E00E94C002E1E0F0E004
:100276003E0E4F1EE2E0F0E0E315F40558F4E7E722
:100286000E94CC02E5E2F3E0FA93EA930E9472023E
:10029600E0E0ECBDECE2F1E00E94D402E991EFBFB0
:1002A600F991E991B991A991999189917991699178
:1002B600F990199009901895EA93FA93EFB7EA9393
:1002C6001A930A931091C0000091C600E12FEC71B9
:1002D60081F4E82D8394F0E0ED5AFC4F0083E8E0CA
:1002E600E81509F48824A394E8E0EA1511F4AA2491
:1002F600F09A0991199126C01A93AA20F1F3E72DD5
:100306007394F0E0ED5AFC4F1081E8E0E71509F42C
:100316007724F894AA947894E12F19910895EA9392
:10032600FA93EFB7EA93BB2069F0BA94EC2DC39425
:10033600F0E0E55AFC4FE081E093C600E8E0EC15FA
:1003460009F4CC24E991EFBFF991E9911895E8E019
:10035600EB15E9F3F894BB2021F4E091C000E072BC
:1003660069F4E92D9394F0E0E55AFC4FA881A08347
:10037600E8E0E91509F49924B39403C0E881E09311
:10038600C60078940C94B302E0E8E0936100E0E0E4
:10039600E0936100E3ECECBDE0E0EDBDEDB5EEB55C
:1003A600E0E1E4B9ECE0E5B9E0E0E093C000E8EDB7
:1003B600E093C100E6E0E093C200E0E0E093C50010
:1003C600E8E0E093C400209A219A28982998E0E171
:1003D600EA9394D07894E3E0F0E03E164F0618F4E2
:1003E600ECB5E03009F405C00E94BB02E1E3F3E09E
:1003F6000DC0E3E0F0E0E315F40559F4EBDEE0E0D0
:10040600EA93E1E0EA933AD0ECE3F3E0FA93EA9375
:1004160066D00E94B502DFCFFFCFE881E07111F010
:100426005C9A01C05C98E881E07211F05D9A01C0A7
:100436005D98E881E07411F05E9A01C05E98E881EB
:10044600E07811F05F9A01C05F9885E08A95F1F730
:10045600409A8DE08A95F1F740988DE08A95F1F7FC
:100466007FC0E881EA93D9DFE881E295E883E881F5
:10047600EA93D3DF85E88A95F1F772C0E881F0E068
:10048600ED59FC4FE081A981EA0FEA93EADFE980A2
:10049600D88022960895E2E00E94D802ECE0EA9322
:1004A600E0DFE1E00E94D802E0E0DE2EEE2E0895C5
:1004B600A881AA3021F0E0916703EE1648F0E0E04B
:1004C600EA93D394DA92DADFA881AA3009F448C015
:1004D600E394429AE881EA93C4DF429841C01A93B2
:1004E600A981BA81ED91A983BA831E2FE03019F054
:1004F6001A93DEDFF5CF188123960895549A559AFC
:10050600569A579A389A3A9A399A40984298419800
:10051600E881E0936703E058E0936503E881E054DF
:10052600E0936603E4E1F0E00E94D4020E94DE025A
:100536000E94DE020E94DE02E0E2EA936EDF88ECB1
:1005460090E00197F1F7E8E2EA938BDFE4E0EA93C3
:1005560088DFE5E8EA9385DFE6E0EA9382DF9BDF62
:1005660021960895E8ECF0E0FA93EA930C94E702FA
:10057600E0E0EA93EA930C944102FA93EA930E942C
:100586007202E8EEF3E0FA93EA930E94E7020C9413
:100596004E02EA930E94AA010E947F01E093C600E0
:1005A6000895FA93EA930C94E702EA930E943402C0
:1005B600E3E0F0E0F6CFE0E3EA930E94100288EC75
:1005C60090E00197F1F70895E991F991309639F0A5
:1005D60080ED97E00197F1F7A8953197C9F708954F
:00000001FF
